{
  "abi": [
    {
      "constant": true,
      "inputs": [],
      "name": "getVote",
      "outputs": [
        {
          "name": "",
          "type": "uint256"
        }
      ],
      "payable": false,
      "stateMutability": "view",
      "type": "function"
    },
    {
      "constant": false,
      "inputs": [
        {
          "name": "_vote",
          "type": "bytes32"
        }
      ],
      "name": "commitVote",
      "outputs": [
        {
          "name": "",
          "type": "bytes32"
        }
      ],
      "payable": false,
      "stateMutability": "nonpayable",
      "type": "function"
    },
    {
      "constant": false,
      "inputs": [
        {
          "name": "_secretkey",
          "type": "bytes32"
        },
        {
          "name": "candidateid",
          "type": "uint256"
        }
      ],
      "name": "revealVote",
      "outputs": [
        {
          "name": "",
          "type": "uint256"
        }
      ],
      "payable": false,
      "stateMutability": "nonpayable",
      "type": "function"
    },
    {
      "constant": true,
      "inputs": [],
      "name": "getId",
      "outputs": [
        {
          "name": "",
          "type": "bytes32"
        }
      ],
      "payable": false,
      "stateMutability": "view",
      "type": "function"
    },
    {
      "constant": true,
      "inputs": [],
      "name": "candidate",
      "outputs": [
        {
          "name": "",
          "type": "uint256"
        }
      ],
      "payable": false,
      "stateMutability": "view",
      "type": "function"
    },
    {
      "constant": false,
      "inputs": [
        {
          "name": "auth",
          "type": "bool"
        }
      ],
      "name": "changeAuthorize",
      "outputs": [
        {
          "name": "",
          "type": "bool"
        }
      ],
      "payable": false,
      "stateMutability": "nonpayable",
      "type": "function"
    },
    {
      "constant": true,
      "inputs": [],
      "name": "secret",
      "outputs": [
        {
          "name": "",
          "type": "bytes32"
        }
      ],
      "payable": false,
      "stateMutability": "view",
      "type": "function"
    },
    {
      "inputs": [
        {
          "name": "_id",
          "type": "bytes32"
        },
        {
          "name": "sender",
          "type": "address"
        },
        {
          "name": "_election",
          "type": "address"
        }
      ],
      "payable": false,
      "stateMutability": "nonpayable",
      "type": "constructor"
    }
  ],
  "devdoc": {
    "methods": {}
  },
  "evm": {
    "assembly": "    /* \"Ballot.sol\":51:1374  contract Ballot {... */\n  mstore(0x40, 0x80)\n    /* \"Ballot.sol\":269:442  constructor(bytes32 _id, address sender, address _election) public{... */\n  callvalue\n    /* \"--CODEGEN--\":8:17   */\n  dup1\n    /* \"--CODEGEN--\":5:7   */\n  iszero\n  tag_1\n  jumpi\n    /* \"--CODEGEN--\":30:31   */\n  0x00\n    /* \"--CODEGEN--\":27:28   */\n  dup1\n    /* \"--CODEGEN--\":20:32   */\n  revert\n    /* \"--CODEGEN--\":5:7   */\ntag_1:\n    /* \"Ballot.sol\":269:442  constructor(bytes32 _id, address sender, address _election) public{... */\n  pop\n  mload(0x40)\n  sub(codesize, bytecodeSize)\n  dup1\n  bytecodeSize\n  dup4\n  codecopy\n  dup2\n  dup2\n  add\n  0x40\n  mstore\n    /* \"--CODEGEN--\":13:15   */\n  0x60\n    /* \"--CODEGEN--\":8:11   */\n  dup2\n    /* \"--CODEGEN--\":5:16   */\n  lt\n    /* \"--CODEGEN--\":2:4   */\n  iszero\n  tag_2\n  jumpi\n    /* \"--CODEGEN--\":29:30   */\n  0x00\n    /* \"--CODEGEN--\":26:27   */\n  dup1\n    /* \"--CODEGEN--\":19:31   */\n  revert\n    /* \"--CODEGEN--\":2:4   */\ntag_2:\n    /* \"Ballot.sol\":269:442  constructor(bytes32 _id, address sender, address _election) public{... */\n  dup2\n  add\n  swap1\n  dup1\n  dup1\n  mload\n  swap1\n  0x20\n  add\n  swap1\n  swap3\n  swap2\n  swap1\n  dup1\n  mload\n  swap1\n  0x20\n  add\n  swap1\n  swap3\n  swap2\n  swap1\n  dup1\n  mload\n  swap1\n  0x20\n  add\n  swap1\n  swap3\n  swap2\n  swap1\n  pop\n  pop\n  pop\n    /* \"Ballot.sol\":350:353  _id */\n  dup3\n    /* \"Ballot.sol\":345:347  id */\n  0x01\n    /* \"Ballot.sol\":345:353  id = _id */\n  dup2\n  swap1\n  sstore\n  pop\n    /* \"Ballot.sol\":371:377  sender */\n  dup2\n    /* \"Ballot.sol\":363:368  owner */\n  0x00\n  dup1\n    /* \"Ballot.sol\":363:377  owner = sender */\n  0x0100\n  exp\n  dup2\n  sload\n  dup2\n  0xffffffffffffffffffffffffffffffffffffffff\n  mul\n  not\n  and\n  swap1\n  dup4\n  0xffffffffffffffffffffffffffffffffffffffff\n  and\n  mul\n  or\n  swap1\n  sstore\n  pop\n    /* \"Ballot.sol\":398:407  _election */\n  dup1\n    /* \"Ballot.sol\":387:395  election */\n  0x02\n  dup1\n    /* \"Ballot.sol\":387:407  election = _election */\n  0x0100\n  exp\n  dup2\n  sload\n  dup2\n  0xffffffffffffffffffffffffffffffffffffffff\n  mul\n  not\n  and\n  swap1\n  dup4\n  0xffffffffffffffffffffffffffffffffffffffff\n  and\n  mul\n  or\n  swap1\n  sstore\n  pop\n    /* \"Ballot.sol\":430:435  false */\n  0x00\n    /* \"Ballot.sol\":417:427  authorized */\n  0x02\n  0x00\n    /* \"Ballot.sol\":417:435  authorized = false */\n  0x0100\n  exp\n  dup2\n  sload\n  dup2\n  0xff\n  mul\n  not\n  and\n  swap1\n  dup4\n  iszero\n  iszero\n  mul\n  or\n  swap1\n  sstore\n  pop\n    /* \"Ballot.sol\":269:442  constructor(bytes32 _id, address sender, address _election) public{... */\n  pop\n  pop\n  pop\n    /* \"Ballot.sol\":51:1374  contract Ballot {... */\n  dataSize(sub_0)\n  dup1\n  dataOffset(sub_0)\n  0x00\n  codecopy\n  0x00\n  return\nstop\n\nsub_0: assembly {\n        /* \"Ballot.sol\":51:1374  contract Ballot {... */\n      mstore(0x40, 0x80)\n      callvalue\n        /* \"--CODEGEN--\":8:17   */\n      dup1\n        /* \"--CODEGEN--\":5:7   */\n      iszero\n      tag_1\n      jumpi\n        /* \"--CODEGEN--\":30:31   */\n      0x00\n        /* \"--CODEGEN--\":27:28   */\n      dup1\n        /* \"--CODEGEN--\":20:32   */\n      revert\n        /* \"--CODEGEN--\":5:7   */\n    tag_1:\n        /* \"Ballot.sol\":51:1374  contract Ballot {... */\n      pop\n      jumpi(tag_2, lt(calldatasize, 0x04))\n      shr(0xe0, calldataload(0x00))\n      dup1\n      0x5d1ca631\n      gt\n      tag_10\n      jumpi\n      dup1\n      0x5d1ca631\n      eq\n      tag_6\n      jumpi\n      dup1\n      0x6c8381f8\n      eq\n      tag_7\n      jumpi\n      dup1\n      0xb1c298a1\n      eq\n      tag_8\n      jumpi\n      dup1\n      0xd1efd30d\n      eq\n      tag_9\n      jumpi\n      jump(tag_2)\n    tag_10:\n      dup1\n      0x0242f351\n      eq\n      tag_3\n      jumpi\n      dup1\n      0x3e858923\n      eq\n      tag_4\n      jumpi\n      dup1\n      0x4e1b3421\n      eq\n      tag_5\n      jumpi\n    tag_2:\n      0x00\n      dup1\n      revert\n        /* \"Ballot.sol\":525:605  function getVote() public view returns(uint256){... */\n    tag_3:\n      tag_11\n      tag_12\n      jump\t// in\n    tag_11:\n      mload(0x40)\n      dup1\n      dup3\n      dup2\n      mstore\n      0x20\n      add\n      swap2\n      pop\n      pop\n      mload(0x40)\n      dup1\n      swap2\n      sub\n      swap1\n      return\n        /* \"Ballot.sol\":733:911  function commitVote(bytes32 _vote) public returns(bytes32){... */\n    tag_4:\n      tag_13\n      0x04\n      dup1\n      calldatasize\n      sub\n        /* \"--CODEGEN--\":13:15   */\n      0x20\n        /* \"--CODEGEN--\":8:11   */\n      dup2\n        /* \"--CODEGEN--\":5:16   */\n      lt\n        /* \"--CODEGEN--\":2:4   */\n      iszero\n      tag_14\n      jumpi\n        /* \"--CODEGEN--\":29:30   */\n      0x00\n        /* \"--CODEGEN--\":26:27   */\n      dup1\n        /* \"--CODEGEN--\":19:31   */\n      revert\n        /* \"--CODEGEN--\":2:4   */\n    tag_14:\n        /* \"Ballot.sol\":733:911  function commitVote(bytes32 _vote) public returns(bytes32){... */\n      dup2\n      add\n      swap1\n      dup1\n      dup1\n      calldataload\n      swap1\n      0x20\n      add\n      swap1\n      swap3\n      swap2\n      swap1\n      pop\n      pop\n      pop\n      tag_15\n      jump\t// in\n    tag_13:\n      mload(0x40)\n      dup1\n      dup3\n      dup2\n      mstore\n      0x20\n      add\n      swap2\n      pop\n      pop\n      mload(0x40)\n      dup1\n      swap2\n      sub\n      swap1\n      return\n        /* \"Ballot.sol\":917:1367  function revealVote(bytes32 _secretkey, uint256 candidateid) public returns(uint256){... */\n    tag_5:\n      tag_16\n      0x04\n      dup1\n      calldatasize\n      sub\n        /* \"--CODEGEN--\":13:15   */\n      0x40\n        /* \"--CODEGEN--\":8:11   */\n      dup2\n        /* \"--CODEGEN--\":5:16   */\n      lt\n        /* \"--CODEGEN--\":2:4   */\n      iszero\n      tag_17\n      jumpi\n        /* \"--CODEGEN--\":29:30   */\n      0x00\n        /* \"--CODEGEN--\":26:27   */\n      dup1\n        /* \"--CODEGEN--\":19:31   */\n      revert\n        /* \"--CODEGEN--\":2:4   */\n    tag_17:\n        /* \"Ballot.sol\":917:1367  function revealVote(bytes32 _secretkey, uint256 candidateid) public returns(uint256){... */\n      dup2\n      add\n      swap1\n      dup1\n      dup1\n      calldataload\n      swap1\n      0x20\n      add\n      swap1\n      swap3\n      swap2\n      swap1\n      dup1\n      calldataload\n      swap1\n      0x20\n      add\n      swap1\n      swap3\n      swap2\n      swap1\n      pop\n      pop\n      pop\n      tag_18\n      jump\t// in\n    tag_16:\n      mload(0x40)\n      dup1\n      dup3\n      dup2\n      mstore\n      0x20\n      add\n      swap2\n      pop\n      pop\n      mload(0x40)\n      dup1\n      swap2\n      sub\n      swap1\n      return\n        /* \"Ballot.sol\":448:519  function getId() public view returns(bytes32){... */\n    tag_6:\n      tag_19\n      tag_20\n      jump\t// in\n    tag_19:\n      mload(0x40)\n      dup1\n      dup3\n      dup2\n      mstore\n      0x20\n      add\n      swap2\n      pop\n      pop\n      mload(0x40)\n      dup1\n      swap2\n      sub\n      swap1\n      return\n        /* \"Ballot.sol\":203:227  uint256 public candidate */\n    tag_7:\n      tag_21\n      tag_22\n      jump\t// in\n    tag_21:\n      mload(0x40)\n      dup1\n      dup3\n      dup2\n      mstore\n      0x20\n      add\n      swap2\n      pop\n      pop\n      mload(0x40)\n      dup1\n      swap2\n      sub\n      swap1\n      return\n        /* \"Ballot.sol\":611:723  function changeAuthorize(bool auth) public returns(bool){... */\n    tag_8:\n      tag_23\n      0x04\n      dup1\n      calldatasize\n      sub\n        /* \"--CODEGEN--\":13:15   */\n      0x20\n        /* \"--CODEGEN--\":8:11   */\n      dup2\n        /* \"--CODEGEN--\":5:16   */\n      lt\n        /* \"--CODEGEN--\":2:4   */\n      iszero\n      tag_24\n      jumpi\n        /* \"--CODEGEN--\":29:30   */\n      0x00\n        /* \"--CODEGEN--\":26:27   */\n      dup1\n        /* \"--CODEGEN--\":19:31   */\n      revert\n        /* \"--CODEGEN--\":2:4   */\n    tag_24:\n        /* \"Ballot.sol\":611:723  function changeAuthorize(bool auth) public returns(bool){... */\n      dup2\n      add\n      swap1\n      dup1\n      dup1\n      calldataload\n      iszero\n      iszero\n      swap1\n      0x20\n      add\n      swap1\n      swap3\n      swap2\n      swap1\n      pop\n      pop\n      pop\n      tag_25\n      jump\t// in\n    tag_23:\n      mload(0x40)\n      dup1\n      dup3\n      iszero\n      iszero\n      iszero\n      iszero\n      dup2\n      mstore\n      0x20\n      add\n      swap2\n      pop\n      pop\n      mload(0x40)\n      dup1\n      swap2\n      sub\n      swap1\n      return\n        /* \"Ballot.sol\":176:197  bytes32 public secret */\n    tag_9:\n      tag_26\n      tag_27\n      jump\t// in\n    tag_26:\n      mload(0x40)\n      dup1\n      dup3\n      dup2\n      mstore\n      0x20\n      add\n      swap2\n      pop\n      pop\n      mload(0x40)\n      dup1\n      swap2\n      sub\n      swap1\n      return\n        /* \"Ballot.sol\":525:605  function getVote() public view returns(uint256){... */\n    tag_12:\n        /* \"Ballot.sol\":564:571  uint256 */\n      0x00\n        /* \"Ballot.sol\":589:598  candidate */\n      sload(0x04)\n        /* \"Ballot.sol\":582:598  return candidate */\n      swap1\n      pop\n        /* \"Ballot.sol\":525:605  function getVote() public view returns(uint256){... */\n      swap1\n      jump\t// out\n        /* \"Ballot.sol\":733:911  function commitVote(bytes32 _vote) public returns(bytes32){... */\n    tag_15:\n        /* \"Ballot.sol\":783:790  bytes32 */\n      0x00\n        /* \"Ballot.sol\":808:818  authorized */\n      0x02\n      0x00\n      swap1\n      sload\n      swap1\n      0x0100\n      exp\n      swap1\n      div\n      0xff\n      and\n        /* \"Ballot.sol\":808:827  authorized && !vote */\n      dup1\n      iszero\n      tag_30\n      jumpi\n      pop\n        /* \"Ballot.sol\":823:827  vote */\n      0x02\n      0x01\n      swap1\n      sload\n      swap1\n      0x0100\n      exp\n      swap1\n      div\n      0xff\n      and\n        /* \"Ballot.sol\":822:827  !vote */\n      iszero\n        /* \"Ballot.sol\":808:827  authorized && !vote */\n    tag_30:\n        /* \"Ballot.sol\":801:828  assert(authorized && !vote) */\n      tag_31\n      jumpi\n      invalid\n    tag_31:\n        /* \"Ballot.sol\":874:879  _vote */\n      dup2\n        /* \"Ballot.sol\":857:880  abi.encodePacked(_vote) */\n      add(0x20, mload(0x40))\n      dup1\n      dup3\n      dup2\n      mstore\n      0x20\n      add\n      swap2\n      pop\n      pop\n      mload(0x40)\n        /* \"--CODEGEN--\":49:53   */\n      0x20\n        /* \"--CODEGEN--\":39:46   */\n      dup2\n        /* \"--CODEGEN--\":30:37   */\n      dup4\n        /* \"--CODEGEN--\":26:47   */\n      sub\n        /* \"--CODEGEN--\":22:54   */\n      sub\n        /* \"--CODEGEN--\":13:20   */\n      dup2\n        /* \"--CODEGEN--\":6:55   */\n      mstore\n        /* \"Ballot.sol\":857:880  abi.encodePacked(_vote) */\n      swap1\n      0x40\n      mstore\n        /* \"Ballot.sol\":847:881  keccak256(abi.encodePacked(_vote)) */\n      dup1\n      mload\n      swap1\n      0x20\n      add\n      keccak256\n        /* \"Ballot.sol\":838:844  secret */\n      0x03\n        /* \"Ballot.sol\":838:881  secret = keccak256(abi.encodePacked(_vote)) */\n      dup2\n      swap1\n      sstore\n      pop\n        /* \"Ballot.sol\":898:904  secret */\n      sload(0x03)\n        /* \"Ballot.sol\":891:904  return secret */\n      swap1\n      pop\n        /* \"Ballot.sol\":733:911  function commitVote(bytes32 _vote) public returns(bytes32){... */\n      swap2\n      swap1\n      pop\n      jump\t// out\n        /* \"Ballot.sol\":917:1367  function revealVote(bytes32 _secretkey, uint256 candidateid) public returns(uint256){... */\n    tag_18:\n        /* \"Ballot.sol\":993:1000  uint256 */\n      0x00\n        /* \"Ballot.sol\":1018:1028  authorized */\n      0x02\n      0x00\n      swap1\n      sload\n      swap1\n      0x0100\n      exp\n      swap1\n      div\n      0xff\n      and\n        /* \"Ballot.sol\":1018:1037  authorized && !vote */\n      dup1\n      iszero\n      tag_33\n      jumpi\n      pop\n        /* \"Ballot.sol\":1033:1037  vote */\n      0x02\n      0x01\n      swap1\n      sload\n      swap1\n      0x0100\n      exp\n      swap1\n      div\n      0xff\n      and\n        /* \"Ballot.sol\":1032:1037  !vote */\n      iszero\n        /* \"Ballot.sol\":1018:1037  authorized && !vote */\n    tag_33:\n        /* \"Ballot.sol\":1011:1038  assert(authorized && !vote) */\n      tag_34\n      jumpi\n      invalid\n    tag_34:\n        /* \"Ballot.sol\":1088:1098  _secretkey */\n      dup3\n        /* \"Ballot.sol\":1071:1099  abi.encodePacked(_secretkey) */\n      add(0x20, mload(0x40))\n      dup1\n      dup3\n      dup2\n      mstore\n      0x20\n      add\n      swap2\n      pop\n      pop\n      mload(0x40)\n        /* \"--CODEGEN--\":49:53   */\n      0x20\n        /* \"--CODEGEN--\":39:46   */\n      dup2\n        /* \"--CODEGEN--\":30:37   */\n      dup4\n        /* \"--CODEGEN--\":26:47   */\n      sub\n        /* \"--CODEGEN--\":22:54   */\n      sub\n        /* \"--CODEGEN--\":13:20   */\n      dup2\n        /* \"--CODEGEN--\":6:55   */\n      mstore\n        /* \"Ballot.sol\":1071:1099  abi.encodePacked(_secretkey) */\n      swap1\n      0x40\n      mstore\n        /* \"Ballot.sol\":1061:1100  keccak256(abi.encodePacked(_secretkey)) */\n      dup1\n      mload\n      swap1\n      0x20\n      add\n      keccak256\n        /* \"Ballot.sol\":1051:1057  secret */\n      sload(0x03)\n        /* \"Ballot.sol\":1051:1100  secret == keccak256(abi.encodePacked(_secretkey)) */\n      eq\n        /* \"Ballot.sol\":1048:1326  if(secret == keccak256(abi.encodePacked(_secretkey))){... */\n      iszero\n      tag_35\n      jumpi\n        /* \"Ballot.sol\":1127:1138  candidateid */\n      dup2\n        /* \"Ballot.sol\":1115:1124  candidate */\n      0x04\n        /* \"Ballot.sol\":1115:1138  candidate = candidateid */\n      dup2\n      swap1\n      sstore\n      pop\n        /* \"Ballot.sol\":1159:1163  true */\n      0x01\n        /* \"Ballot.sol\":1152:1156  vote */\n      0x02\n      0x01\n        /* \"Ballot.sol\":1152:1163  vote = true */\n      0x0100\n      exp\n      dup2\n      sload\n      dup2\n      0xff\n      mul\n      not\n      and\n      swap1\n      dup4\n      iszero\n      iszero\n      mul\n      or\n      swap1\n      sstore\n      pop\n        /* \"Ballot.sol\":1177:1195  Election _election */\n      0x00\n        /* \"Ballot.sol\":1207:1215  election */\n      0x02\n      dup1\n      swap1\n      sload\n      swap1\n      0x0100\n      exp\n      swap1\n      div\n      0xffffffffffffffffffffffffffffffffffffffff\n      and\n        /* \"Ballot.sol\":1177:1216  Election _election = Election(election) */\n      swap1\n      pop\n        /* \"Ballot.sol\":1230:1239  _election */\n      dup1\n        /* \"Ballot.sol\":1230:1257  _election.addVoteCollection */\n      0xffffffffffffffffffffffffffffffffffffffff\n      and\n      0x252e04aa\n        /* \"Ballot.sol\":1258:1267  candidate */\n      sload(0x04)\n        /* \"Ballot.sol\":1230:1268  _election.addVoteCollection(candidate) */\n      mload(0x40)\n      dup3\n      0xffffffff\n      and\n      0xe0\n      shl\n      dup2\n      mstore\n      0x04\n      add\n      dup1\n      dup3\n      dup2\n      mstore\n      0x20\n      add\n      swap2\n      pop\n      pop\n      0x00\n      mload(0x40)\n      dup1\n      dup4\n      sub\n      dup2\n      0x00\n      dup8\n      dup1\n      extcodesize\n      iszero\n        /* \"--CODEGEN--\":8:17   */\n      dup1\n        /* \"--CODEGEN--\":5:7   */\n      iszero\n      tag_36\n      jumpi\n        /* \"--CODEGEN--\":30:31   */\n      0x00\n        /* \"--CODEGEN--\":27:28   */\n      dup1\n        /* \"--CODEGEN--\":20:32   */\n      revert\n        /* \"--CODEGEN--\":5:7   */\n    tag_36:\n        /* \"Ballot.sol\":1230:1268  _election.addVoteCollection(candidate) */\n      pop\n      gas\n      call\n      iszero\n        /* \"--CODEGEN--\":8:17   */\n      dup1\n        /* \"--CODEGEN--\":5:7   */\n      iszero\n      tag_37\n      jumpi\n        /* \"--CODEGEN--\":45:61   */\n      returndatasize\n        /* \"--CODEGEN--\":42:43   */\n      0x00\n        /* \"--CODEGEN--\":39:40   */\n      dup1\n        /* \"--CODEGEN--\":24:62   */\n      returndatacopy\n        /* \"--CODEGEN--\":77:93   */\n      returndatasize\n        /* \"--CODEGEN--\":74:75   */\n      0x00\n        /* \"--CODEGEN--\":67:94   */\n      revert\n        /* \"--CODEGEN--\":5:7   */\n    tag_37:\n        /* \"Ballot.sol\":1230:1268  _election.addVoteCollection(candidate) */\n      pop\n      pop\n      pop\n      pop\n        /* \"Ballot.sol\":1048:1326  if(secret == keccak256(abi.encodePacked(_secretkey))){... */\n      pop\n      jump(tag_38)\n    tag_35:\n        /* \"Ballot.sol\":1311:1315  9999 */\n      0x270f\n        /* \"Ballot.sol\":1299:1308  candidate */\n      0x04\n        /* \"Ballot.sol\":1299:1315  candidate = 9999 */\n      dup2\n      swap1\n      sstore\n      pop\n        /* \"Ballot.sol\":1048:1326  if(secret == keccak256(abi.encodePacked(_secretkey))){... */\n    tag_38:\n        /* \"Ballot.sol\":1351:1360  candidate */\n      sload(0x04)\n        /* \"Ballot.sol\":1344:1360  return candidate */\n      swap1\n      pop\n        /* \"Ballot.sol\":917:1367  function revealVote(bytes32 _secretkey, uint256 candidateid) public returns(uint256){... */\n      swap3\n      swap2\n      pop\n      pop\n      jump\t// out\n        /* \"Ballot.sol\":448:519  function getId() public view returns(bytes32){... */\n    tag_20:\n        /* \"Ballot.sol\":485:492  bytes32 */\n      0x00\n        /* \"Ballot.sol\":510:512  id */\n      sload(0x01)\n        /* \"Ballot.sol\":503:512  return id */\n      swap1\n      pop\n        /* \"Ballot.sol\":448:519  function getId() public view returns(bytes32){... */\n      swap1\n      jump\t// out\n        /* \"Ballot.sol\":203:227  uint256 public candidate */\n    tag_22:\n      sload(0x04)\n      dup2\n      jump\t// out\n        /* \"Ballot.sol\":611:723  function changeAuthorize(bool auth) public returns(bool){... */\n    tag_25:\n        /* \"Ballot.sol\":662:666  bool */\n      0x00\n        /* \"Ballot.sol\":690:694  auth */\n      dup2\n        /* \"Ballot.sol\":677:687  authorized */\n      0x02\n      0x00\n        /* \"Ballot.sol\":677:694  authorized = auth */\n      0x0100\n      exp\n      dup2\n      sload\n      dup2\n      0xff\n      mul\n      not\n      and\n      swap1\n      dup4\n      iszero\n      iszero\n      mul\n      or\n      swap1\n      sstore\n      pop\n        /* \"Ballot.sol\":711:715  auth */\n      dup2\n        /* \"Ballot.sol\":704:716  return(auth) */\n      swap1\n      pop\n        /* \"Ballot.sol\":611:723  function changeAuthorize(bool auth) public returns(bool){... */\n      swap2\n      swap1\n      pop\n      jump\t// out\n        /* \"Ballot.sol\":176:197  bytes32 public secret */\n    tag_27:\n      sload(0x03)\n      dup2\n      jump\t// out\n\n    auxdata: 0xa265627a7a7230582019271b6558f97dbdf47b0913db75cc34229a508d54a1f9fc55bef62e16b6543564736f6c63430005090032\n}\n",
    "bytecode": {
      "linkReferences": {},
      "object": "608060405234801561001057600080fd5b506040516104ee3803806104ee8339818101604052606081101561003357600080fd5b8101908080519060200190929190805190602001909291908051906020019092919050505082600181905550816000806101000a81548173ffffffffffffffffffffffffffffffffffffffff021916908373ffffffffffffffffffffffffffffffffffffffff160217905550806002806101000a81548173ffffffffffffffffffffffffffffffffffffffff021916908373ffffffffffffffffffffffffffffffffffffffff1602179055506000600260006101000a81548160ff0219169083151502179055505050506103e28061010c6000396000f3fe608060405234801561001057600080fd5b506004361061007d5760003560e01c80635d1ca6311161005b5780635d1ca6311461012e5780636c8381f81461014c578063b1c298a11461016a578063d1efd30d146101b25761007d565b80630242f351146100825780633e858923146100a05780634e1b3421146100e2575b600080fd5b61008a6101d0565b6040518082815260200191505060405180910390f35b6100cc600480360360208110156100b657600080fd5b81019080803590602001909291905050506101da565b6040518082815260200191505060405180910390f35b610118600480360360408110156100f857600080fd5b810190808035906020019092919080359060200190929190505050610242565b6040518082815260200191505060405180910390f35b610136610373565b6040518082815260200191505060405180910390f35b61015461037d565b6040518082815260200191505060405180910390f35b6101986004803603602081101561018057600080fd5b81019080803515159060200190929190505050610383565b604051808215151515815260200191505060405180910390f35b6101ba6103a7565b6040518082815260200191505060405180910390f35b6000600454905090565b6000600260009054906101000a900460ff1680156102055750600260019054906101000a900460ff16155b61020b57fe5b8160405160200180828152602001915050604051602081830303815290604052805190602001206003819055506003549050919050565b6000600260009054906101000a900460ff16801561026d5750600260019054906101000a900460ff16155b61027357fe5b826040516020018082815260200191505060405160208183030381529060405280519060200120600354141561035e57816004819055506001600260016101000a81548160ff02191690831515021790555060006002809054906101000a900473ffffffffffffffffffffffffffffffffffffffff1690508073ffffffffffffffffffffffffffffffffffffffff1663252e04aa6004546040518263ffffffff1660e01b815260040180828152602001915050600060405180830381600087803b15801561034057600080fd5b505af1158015610354573d6000803e3d6000fd5b5050505050610368565b61270f6004819055505b600454905092915050565b6000600154905090565b60045481565b600081600260006101000a81548160ff021916908315150217905550819050919050565b6003548156fea265627a7a7230582019271b6558f97dbdf47b0913db75cc34229a508d54a1f9fc55bef62e16b6543564736f6c63430005090032",
      "opcodes": "PUSH1 0x80 PUSH1 0x40 MSTORE CALLVALUE DUP1 ISZERO PUSH2 0x10 JUMPI PUSH1 0x0 DUP1 REVERT JUMPDEST POP PUSH1 0x40 MLOAD PUSH2 0x4EE CODESIZE SUB DUP1 PUSH2 0x4EE DUP4 CODECOPY DUP2 DUP2 ADD PUSH1 0x40 MSTORE PUSH1 0x60 DUP2 LT ISZERO PUSH2 0x33 JUMPI PUSH1 0x0 DUP1 REVERT JUMPDEST DUP2 ADD SWAP1 DUP1 DUP1 MLOAD SWAP1 PUSH1 0x20 ADD SWAP1 SWAP3 SWAP2 SWAP1 DUP1 MLOAD SWAP1 PUSH1 0x20 ADD SWAP1 SWAP3 SWAP2 SWAP1 DUP1 MLOAD SWAP1 PUSH1 0x20 ADD SWAP1 SWAP3 SWAP2 SWAP1 POP POP POP DUP3 PUSH1 0x1 DUP2 SWAP1 SSTORE POP DUP2 PUSH1 0x0 DUP1 PUSH2 0x100 EXP DUP2 SLOAD DUP2 PUSH20 0xFFFFFFFFFFFFFFFFFFFFFFFFFFFFFFFFFFFFFFFF MUL NOT AND SWAP1 DUP4 PUSH20 0xFFFFFFFFFFFFFFFFFFFFFFFFFFFFFFFFFFFFFFFF AND MUL OR SWAP1 SSTORE POP DUP1 PUSH1 0x2 DUP1 PUSH2 0x100 EXP DUP2 SLOAD DUP2 PUSH20 0xFFFFFFFFFFFFFFFFFFFFFFFFFFFFFFFFFFFFFFFF MUL NOT AND SWAP1 DUP4 PUSH20 0xFFFFFFFFFFFFFFFFFFFFFFFFFFFFFFFFFFFFFFFF AND MUL OR SWAP1 SSTORE POP PUSH1 0x0 PUSH1 0x2 PUSH1 0x0 PUSH2 0x100 EXP DUP2 SLOAD DUP2 PUSH1 0xFF MUL NOT AND SWAP1 DUP4 ISZERO ISZERO MUL OR SWAP1 SSTORE POP POP POP POP PUSH2 0x3E2 DUP1 PUSH2 0x10C PUSH1 0x0 CODECOPY PUSH1 0x0 RETURN INVALID PUSH1 0x80 PUSH1 0x40 MSTORE CALLVALUE DUP1 ISZERO PUSH2 0x10 JUMPI PUSH1 0x0 DUP1 REVERT JUMPDEST POP PUSH1 0x4 CALLDATASIZE LT PUSH2 0x7D JUMPI PUSH1 0x0 CALLDATALOAD PUSH1 0xE0 SHR DUP1 PUSH4 0x5D1CA631 GT PUSH2 0x5B JUMPI DUP1 PUSH4 0x5D1CA631 EQ PUSH2 0x12E JUMPI DUP1 PUSH4 0x6C8381F8 EQ PUSH2 0x14C JUMPI DUP1 PUSH4 0xB1C298A1 EQ PUSH2 0x16A JUMPI DUP1 PUSH4 0xD1EFD30D EQ PUSH2 0x1B2 JUMPI PUSH2 0x7D JUMP JUMPDEST DUP1 PUSH4 0x242F351 EQ PUSH2 0x82 JUMPI DUP1 PUSH4 0x3E858923 EQ PUSH2 0xA0 JUMPI DUP1 PUSH4 0x4E1B3421 EQ PUSH2 0xE2 JUMPI JUMPDEST PUSH1 0x0 DUP1 REVERT JUMPDEST PUSH2 0x8A PUSH2 0x1D0 JUMP JUMPDEST PUSH1 0x40 MLOAD DUP1 DUP3 DUP2 MSTORE PUSH1 0x20 ADD SWAP2 POP POP PUSH1 0x40 MLOAD DUP1 SWAP2 SUB SWAP1 RETURN JUMPDEST PUSH2 0xCC PUSH1 0x4 DUP1 CALLDATASIZE SUB PUSH1 0x20 DUP2 LT ISZERO PUSH2 0xB6 JUMPI PUSH1 0x0 DUP1 REVERT JUMPDEST DUP2 ADD SWAP1 DUP1 DUP1 CALLDATALOAD SWAP1 PUSH1 0x20 ADD SWAP1 SWAP3 SWAP2 SWAP1 POP POP POP PUSH2 0x1DA JUMP JUMPDEST PUSH1 0x40 MLOAD DUP1 DUP3 DUP2 MSTORE PUSH1 0x20 ADD SWAP2 POP POP PUSH1 0x40 MLOAD DUP1 SWAP2 SUB SWAP1 RETURN JUMPDEST PUSH2 0x118 PUSH1 0x4 DUP1 CALLDATASIZE SUB PUSH1 0x40 DUP2 LT ISZERO PUSH2 0xF8 JUMPI PUSH1 0x0 DUP1 REVERT JUMPDEST DUP2 ADD SWAP1 DUP1 DUP1 CALLDATALOAD SWAP1 PUSH1 0x20 ADD SWAP1 SWAP3 SWAP2 SWAP1 DUP1 CALLDATALOAD SWAP1 PUSH1 0x20 ADD SWAP1 SWAP3 SWAP2 SWAP1 POP POP POP PUSH2 0x242 JUMP JUMPDEST PUSH1 0x40 MLOAD DUP1 DUP3 DUP2 MSTORE PUSH1 0x20 ADD SWAP2 POP POP PUSH1 0x40 MLOAD DUP1 SWAP2 SUB SWAP1 RETURN JUMPDEST PUSH2 0x136 PUSH2 0x373 JUMP JUMPDEST PUSH1 0x40 MLOAD DUP1 DUP3 DUP2 MSTORE PUSH1 0x20 ADD SWAP2 POP POP PUSH1 0x40 MLOAD DUP1 SWAP2 SUB SWAP1 RETURN JUMPDEST PUSH2 0x154 PUSH2 0x37D JUMP JUMPDEST PUSH1 0x40 MLOAD DUP1 DUP3 DUP2 MSTORE PUSH1 0x20 ADD SWAP2 POP POP PUSH1 0x40 MLOAD DUP1 SWAP2 SUB SWAP1 RETURN JUMPDEST PUSH2 0x198 PUSH1 0x4 DUP1 CALLDATASIZE SUB PUSH1 0x20 DUP2 LT ISZERO PUSH2 0x180 JUMPI PUSH1 0x0 DUP1 REVERT JUMPDEST DUP2 ADD SWAP1 DUP1 DUP1 CALLDATALOAD ISZERO ISZERO SWAP1 PUSH1 0x20 ADD SWAP1 SWAP3 SWAP2 SWAP1 POP POP POP PUSH2 0x383 JUMP JUMPDEST PUSH1 0x40 MLOAD DUP1 DUP3 ISZERO ISZERO ISZERO ISZERO DUP2 MSTORE PUSH1 0x20 ADD SWAP2 POP POP PUSH1 0x40 MLOAD DUP1 SWAP2 SUB SWAP1 RETURN JUMPDEST PUSH2 0x1BA PUSH2 0x3A7 JUMP JUMPDEST PUSH1 0x40 MLOAD DUP1 DUP3 DUP2 MSTORE PUSH1 0x20 ADD SWAP2 POP POP PUSH1 0x40 MLOAD DUP1 SWAP2 SUB SWAP1 RETURN JUMPDEST PUSH1 0x0 PUSH1 0x4 SLOAD SWAP1 POP SWAP1 JUMP JUMPDEST PUSH1 0x0 PUSH1 0x2 PUSH1 0x0 SWAP1 SLOAD SWAP1 PUSH2 0x100 EXP SWAP1 DIV PUSH1 0xFF AND DUP1 ISZERO PUSH2 0x205 JUMPI POP PUSH1 0x2 PUSH1 0x1 SWAP1 SLOAD SWAP1 PUSH2 0x100 EXP SWAP1 DIV PUSH1 0xFF AND ISZERO JUMPDEST PUSH2 0x20B JUMPI INVALID JUMPDEST DUP2 PUSH1 0x40 MLOAD PUSH1 0x20 ADD DUP1 DUP3 DUP2 MSTORE PUSH1 0x20 ADD SWAP2 POP POP PUSH1 0x40 MLOAD PUSH1 0x20 DUP2 DUP4 SUB SUB DUP2 MSTORE SWAP1 PUSH1 0x40 MSTORE DUP1 MLOAD SWAP1 PUSH1 0x20 ADD KECCAK256 PUSH1 0x3 DUP2 SWAP1 SSTORE POP PUSH1 0x3 SLOAD SWAP1 POP SWAP2 SWAP1 POP JUMP JUMPDEST PUSH1 0x0 PUSH1 0x2 PUSH1 0x0 SWAP1 SLOAD SWAP1 PUSH2 0x100 EXP SWAP1 DIV PUSH1 0xFF AND DUP1 ISZERO PUSH2 0x26D JUMPI POP PUSH1 0x2 PUSH1 0x1 SWAP1 SLOAD SWAP1 PUSH2 0x100 EXP SWAP1 DIV PUSH1 0xFF AND ISZERO JUMPDEST PUSH2 0x273 JUMPI INVALID JUMPDEST DUP3 PUSH1 0x40 MLOAD PUSH1 0x20 ADD DUP1 DUP3 DUP2 MSTORE PUSH1 0x20 ADD SWAP2 POP POP PUSH1 0x40 MLOAD PUSH1 0x20 DUP2 DUP4 SUB SUB DUP2 MSTORE SWAP1 PUSH1 0x40 MSTORE DUP1 MLOAD SWAP1 PUSH1 0x20 ADD KECCAK256 PUSH1 0x3 SLOAD EQ ISZERO PUSH2 0x35E JUMPI DUP2 PUSH1 0x4 DUP2 SWAP1 SSTORE POP PUSH1 0x1 PUSH1 0x2 PUSH1 0x1 PUSH2 0x100 EXP DUP2 SLOAD DUP2 PUSH1 0xFF MUL NOT AND SWAP1 DUP4 ISZERO ISZERO MUL OR SWAP1 SSTORE POP PUSH1 0x0 PUSH1 0x2 DUP1 SWAP1 SLOAD SWAP1 PUSH2 0x100 EXP SWAP1 DIV PUSH20 0xFFFFFFFFFFFFFFFFFFFFFFFFFFFFFFFFFFFFFFFF AND SWAP1 POP DUP1 PUSH20 0xFFFFFFFFFFFFFFFFFFFFFFFFFFFFFFFFFFFFFFFF AND PUSH4 0x252E04AA PUSH1 0x4 SLOAD PUSH1 0x40 MLOAD DUP3 PUSH4 0xFFFFFFFF AND PUSH1 0xE0 SHL DUP2 MSTORE PUSH1 0x4 ADD DUP1 DUP3 DUP2 MSTORE PUSH1 0x20 ADD SWAP2 POP POP PUSH1 0x0 PUSH1 0x40 MLOAD DUP1 DUP4 SUB DUP2 PUSH1 0x0 DUP8 DUP1 EXTCODESIZE ISZERO DUP1 ISZERO PUSH2 0x340 JUMPI PUSH1 0x0 DUP1 REVERT JUMPDEST POP GAS CALL ISZERO DUP1 ISZERO PUSH2 0x354 JUMPI RETURNDATASIZE PUSH1 0x0 DUP1 RETURNDATACOPY RETURNDATASIZE PUSH1 0x0 REVERT JUMPDEST POP POP POP POP POP PUSH2 0x368 JUMP JUMPDEST PUSH2 0x270F PUSH1 0x4 DUP2 SWAP1 SSTORE POP JUMPDEST PUSH1 0x4 SLOAD SWAP1 POP SWAP3 SWAP2 POP POP JUMP JUMPDEST PUSH1 0x0 PUSH1 0x1 SLOAD SWAP1 POP SWAP1 JUMP JUMPDEST PUSH1 0x4 SLOAD DUP2 JUMP JUMPDEST PUSH1 0x0 DUP2 PUSH1 0x2 PUSH1 0x0 PUSH2 0x100 EXP DUP2 SLOAD DUP2 PUSH1 0xFF MUL NOT AND SWAP1 DUP4 ISZERO ISZERO MUL OR SWAP1 SSTORE POP DUP2 SWAP1 POP SWAP2 SWAP1 POP JUMP JUMPDEST PUSH1 0x3 SLOAD DUP2 JUMP INVALID LOG2 PUSH6 0x627A7A723058 KECCAK256 NOT 0x27 SHL PUSH6 0x58F97DBDF47B MULMOD SGT 0xdb PUSH22 0xCC34229A508D54A1F9FC55BEF62E16B6543564736F6C PUSH4 0x43000509 STOP ORIGIN "
    },
    "gasEstimates": {
      "creation": {
        "codeDepositCost": "198800",
        "executionCost": "infinite",
        "totalCost": "infinite"
      },
      "external": {
        "candidate()": "427",
        "changeAuthorize(bool)": "20629",
        "commitVote(bytes32)": "21234",
        "getId()": "413",
        "getVote()": "414",
        "revealVote(bytes32,uint256)": "infinite",
        "secret()": "471"
      }
    },
    "methodIdentifiers": {
      "candidate()": "6c8381f8",
      "changeAuthorize(bool)": "b1c298a1",
      "commitVote(bytes32)": "3e858923",
      "getId()": "5d1ca631",
      "getVote()": "0242f351",
      "revealVote(bytes32,uint256)": "4e1b3421",
      "secret()": "d1efd30d"
    }
  },
  "userdoc": {
    "methods": {}
  }
}